{
  "_format": "hh-sol-artifact-1",
  "contractName": "SecureVault",
  "sourceName": "contracts/SecureVault.sol",
  "abi": [
    {
      "inputs": [
        {
          "internalType": "address",
          "name": "_authManager",
          "type": "address"
        }
      ],
      "stateMutability": "nonpayable",
      "type": "constructor"
    },
    {
      "anonymous": false,
      "inputs": [
        {
          "indexed": true,
          "internalType": "address",
          "name": "sender",
          "type": "address"
        },
        {
          "indexed": false,
          "internalType": "uint256",
          "name": "amount",
          "type": "uint256"
        }
      ],
      "name": "Deposit",
      "type": "event"
    },
    {
      "anonymous": false,
      "inputs": [
        {
          "indexed": true,
          "internalType": "bytes32",
          "name": "authId",
          "type": "bytes32"
        },
        {
          "indexed": true,
          "internalType": "address",
          "name": "recipient",
          "type": "address"
        },
        {
          "indexed": false,
          "internalType": "uint256",
          "name": "amount",
          "type": "uint256"
        }
      ],
      "name": "Withdrawal",
      "type": "event"
    },
    {
      "inputs": [],
      "name": "authManager",
      "outputs": [
        {
          "internalType": "contract IAuthorizationManager",
          "name": "",
          "type": "address"
        }
      ],
      "stateMutability": "view",
      "type": "function"
    },
    {
      "inputs": [
        {
          "internalType": "address",
          "name": "recipient",
          "type": "address"
        },
        {
          "internalType": "uint256",
          "name": "amount",
          "type": "uint256"
        },
        {
          "internalType": "bytes32",
          "name": "authId",
          "type": "bytes32"
        },
        {
          "internalType": "bytes",
          "name": "signature",
          "type": "bytes"
        }
      ],
      "name": "withdraw",
      "outputs": [],
      "stateMutability": "nonpayable",
      "type": "function"
    },
    {
      "stateMutability": "payable",
      "type": "receive"
    }
  ],
  "bytecode": "0x608060405234801561001057600080fd5b50604051610ae3380380610ae3833981810160405281019061003291906100db565b806000806101000a81548173ffffffffffffffffffffffffffffffffffffffff021916908373ffffffffffffffffffffffffffffffffffffffff16021790555050610108565b600080fd5b600073ffffffffffffffffffffffffffffffffffffffff82169050919050565b60006100a88261007d565b9050919050565b6100b88161009d565b81146100c357600080fd5b50565b6000815190506100d5816100af565b92915050565b6000602082840312156100f1576100f0610078565b5b60006100ff848285016100c6565b91505092915050565b6109cc806101176000396000f3fe60806040526004361061002d5760003560e01c8063920811b214610087578063b39a1c6b146100b257610082565b36610082573373ffffffffffffffffffffffffffffffffffffffff167fe1fffcc4923d04b559f4d29a8bfc6cda04eb5b0d3c460751c2402c5c5cc9109c346040516100789190610347565b60405180910390a2005b600080fd5b34801561009357600080fd5b5061009c6100db565b6040516100a991906103e1565b60405180910390f35b3480156100be57600080fd5b506100d960048036038101906100d491906105f6565b6100ff565b005b60008054906101000a900473ffffffffffffffffffffffffffffffffffffffff1681565b60008060009054906101000a900473ffffffffffffffffffffffffffffffffffffffff1673ffffffffffffffffffffffffffffffffffffffff16634f55289630878787876040518663ffffffff1660e01b8152600401610163959493929190610716565b6020604051808303816000875af1158015610182573d6000803e3d6000fd5b505050506040513d601f19601f820116820180604052508101906101a691906107a8565b9050806101e8576040517f08c379a00000000000000000000000000000000000000000000000000000000081526004016101df90610858565b60405180910390fd5b8347101561022b576040517f08c379a0000000000000000000000000000000000000000000000000000000008152600401610222906108c4565b60405180910390fd5b60008573ffffffffffffffffffffffffffffffffffffffff168560405161025190610915565b60006040518083038185875af1925050503d806000811461028e576040519150601f19603f3d011682016040523d82523d6000602084013e610293565b606091505b50509050806102d7576040517f08c379a00000000000000000000000000000000000000000000000000000000081526004016102ce90610976565b60405180910390fd5b8573ffffffffffffffffffffffffffffffffffffffff16847f028ab133c73f6c00ad0c5896ef40eff18378acd3d7f2ecf573c2706582bf73bf8760405161031e9190610347565b60405180910390a3505050505050565b6000819050919050565b6103418161032e565b82525050565b600060208201905061035c6000830184610338565b92915050565b600073ffffffffffffffffffffffffffffffffffffffff82169050919050565b6000819050919050565b60006103a76103a261039d84610362565b610382565b610362565b9050919050565b60006103b98261038c565b9050919050565b60006103cb826103ae565b9050919050565b6103db816103c0565b82525050565b60006020820190506103f660008301846103d2565b92915050565b6000604051905090565b600080fd5b600080fd5b600061041b82610362565b9050919050565b61042b81610410565b811461043657600080fd5b50565b60008135905061044881610422565b92915050565b6104578161032e565b811461046257600080fd5b50565b6000813590506104748161044e565b92915050565b6000819050919050565b61048d8161047a565b811461049857600080fd5b50565b6000813590506104aa81610484565b92915050565b600080fd5b600080fd5b6000601f19601f8301169050919050565b7f4e487b7100000000000000000000000000000000000000000000000000000000600052604160045260246000fd5b610503826104ba565b810181811067ffffffffffffffff82111715610522576105216104cb565b5b80604052505050565b60006105356103fc565b905061054182826104fa565b919050565b600067ffffffffffffffff821115610561576105606104cb565b5b61056a826104ba565b9050602081019050919050565b82818337600083830152505050565b600061059961059484610546565b61052b565b9050828152602081018484840111156105b5576105b46104b5565b5b6105c0848285610577565b509392505050565b600082601f8301126105dd576105dc6104b0565b5b81356105ed848260208601610586565b91505092915050565b600080600080608085870312156106105761060f610406565b5b600061061e87828801610439565b945050602061062f87828801610465565b93505060406106408782880161049b565b925050606085013567ffffffffffffffff8111156106615761066061040b565b5b61066d878288016105c8565b91505092959194509250565b61068281610410565b82525050565b6106918161047a565b82525050565b600081519050919050565b600082825260208201905092915050565b60005b838110156106d15780820151818401526020810190506106b6565b60008484015250505050565b60006106e882610697565b6106f281856106a2565b93506107028185602086016106b3565b61070b816104ba565b840191505092915050565b600060a08201905061072b6000830188610679565b6107386020830187610679565b6107456040830186610338565b6107526060830185610688565b818103608083015261076481846106dd565b90509695505050505050565b60008115159050919050565b61078581610770565b811461079057600080fd5b50565b6000815190506107a28161077c565b92915050565b6000602082840312156107be576107bd610406565b5b60006107cc84828501610793565b91505092915050565b600082825260208201905092915050565b7f5769746864726177616c2064656e69656420627920417574686f72697a61746960008201527f6f6e204d616e6167657200000000000000000000000000000000000000000000602082015250565b6000610842602a836107d5565b915061084d826107e6565b604082019050919050565b6000602082019050818103600083015261087181610835565b9050919050565b7f496e73756666696369656e74207661756c742066756e64730000000000000000600082015250565b60006108ae6018836107d5565b91506108b982610878565b602082019050919050565b600060208201905081810360008301526108dd816108a1565b9050919050565b600081905092915050565b50565b60006108ff6000836108e4565b915061090a826108ef565b600082019050919050565b6000610920826108f2565b9150819050919050565b7f5472616e73666572206661696c65640000000000000000000000000000000000600082015250565b6000610960600f836107d5565b915061096b8261092a565b602082019050919050565b6000602082019050818103600083015261098f81610953565b905091905056fea26469706673582212201d4f8c1737fe163e53b42102a4d44b349b6380309d8dbd23c1efaed0cebe1b3864736f6c63430008140033",
  "linkReferences": {},
  "deployedLinkReferences": {}
}