{
  "_format": "hh-sol-artifact-1",
  "contractName": "AuthorizationManager",
  "sourceName": "contracts/AuthorizationManager.sol",
  "abi": [
    {
      "inputs": [],
      "stateMutability": "nonpayable",
      "type": "constructor"
    },
    {
      "anonymous": false,
      "inputs": [
        {
          "indexed": true,
          "internalType": "bytes32",
          "name": "authId",
          "type": "bytes32"
        },
        {
          "indexed": true,
          "internalType": "address",
          "name": "recipient",
          "type": "address"
        },
        {
          "indexed": false,
          "internalType": "uint256",
          "name": "amount",
          "type": "uint256"
        }
      ],
      "name": "AuthorizationProcessed",
      "type": "event"
    },
    {
      "inputs": [],
      "name": "admin",
      "outputs": [
        {
          "internalType": "address",
          "name": "",
          "type": "address"
        }
      ],
      "stateMutability": "view",
      "type": "function"
    },
    {
      "inputs": [
        {
          "internalType": "bytes32",
          "name": "",
          "type": "bytes32"
        }
      ],
      "name": "processedAuths",
      "outputs": [
        {
          "internalType": "bool",
          "name": "",
          "type": "bool"
        }
      ],
      "stateMutability": "view",
      "type": "function"
    },
    {
      "inputs": [
        {
          "internalType": "address",
          "name": "vault",
          "type": "address"
        },
        {
          "internalType": "address",
          "name": "recipient",
          "type": "address"
        },
        {
          "internalType": "uint256",
          "name": "amount",
          "type": "uint256"
        },
        {
          "internalType": "bytes32",
          "name": "authId",
          "type": "bytes32"
        },
        {
          "internalType": "bytes",
          "name": "signature",
          "type": "bytes"
        }
      ],
      "name": "verifyAuthorization",
      "outputs": [
        {
          "internalType": "bool",
          "name": "",
          "type": "bool"
        }
      ],
      "stateMutability": "nonpayable",
      "type": "function"
    }
  ],
  "bytecode": "0x608060405234801561001057600080fd5b50336000806101000a81548173ffffffffffffffffffffffffffffffffffffffff021916908373ffffffffffffffffffffffffffffffffffffffff160217905550610a98806100606000396000f3fe608060405234801561001057600080fd5b50600436106100415760003560e01c80634f552896146100465780636079a2f514610076578063f851a440146100a6575b600080fd5b610060600480360381019061005b91906105fa565b6100c4565b60405161006d91906106ac565b60405180910390f35b610090600480360381019061008b91906106c7565b61028b565b60405161009d91906106ac565b60405180910390f35b6100ae6102ab565b6040516100bb9190610703565b60405180910390f35b60006001600084815260200190815260200160002060009054906101000a900460ff1615610127576040517f08c379a000000000000000000000000000000000000000000000000000000000815260040161011e9061077b565b60405180910390fd5b6000868686866040516020016101409493929190610825565b6040516020818303038152906040528051906020012090506000610163826102cf565b9050600061017182866102ff565b905060008054906101000a900473ffffffffffffffffffffffffffffffffffffffff1673ffffffffffffffffffffffffffffffffffffffff168173ffffffffffffffffffffffffffffffffffffffff1614610201576040517f08c379a00000000000000000000000000000000000000000000000000000000081526004016101f8906108bf565b60405180910390fd5b600180600088815260200190815260200160002060006101000a81548160ff0219169083151502179055508773ffffffffffffffffffffffffffffffffffffffff16867fe37d0348e1b58d17f4249a40a19240a2488958bf145180c44c9ba840568934448960405161027391906108ee565b60405180910390a36001935050505095945050505050565b60016020528060005260406000206000915054906101000a900460ff1681565b60008054906101000a900473ffffffffffffffffffffffffffffffffffffffff1681565b6000816040516020016102e29190610960565b604051602081830303815290604052805190602001209050919050565b60008060008061030e8561036e565b9250925092506001868285856040516000815260200160405260405161033794939291906109b1565b6020604051602081039080840390855afa158015610359573d6000803e3d6000fd5b50505060206040510351935050505092915050565b600080600060418451146103b7576040517f08c379a00000000000000000000000000000000000000000000000000000000081526004016103ae90610a42565b60405180910390fd5b6020840151925060408401519150606084015160001a90509193909250565b6000604051905090565b600080fd5b600080fd5b600073ffffffffffffffffffffffffffffffffffffffff82169050919050565b6000610415826103ea565b9050919050565b6104258161040a565b811461043057600080fd5b50565b6000813590506104428161041c565b92915050565b6000819050919050565b61045b81610448565b811461046657600080fd5b50565b60008135905061047881610452565b92915050565b6000819050919050565b6104918161047e565b811461049c57600080fd5b50565b6000813590506104ae81610488565b92915050565b600080fd5b600080fd5b6000601f19601f8301169050919050565b7f4e487b7100000000000000000000000000000000000000000000000000000000600052604160045260246000fd5b610507826104be565b810181811067ffffffffffffffff82111715610526576105256104cf565b5b80604052505050565b60006105396103d6565b905061054582826104fe565b919050565b600067ffffffffffffffff821115610565576105646104cf565b5b61056e826104be565b9050602081019050919050565b82818337600083830152505050565b600061059d6105988461054a565b61052f565b9050828152602081018484840111156105b9576105b86104b9565b5b6105c484828561057b565b509392505050565b600082601f8301126105e1576105e06104b4565b5b81356105f184826020860161058a565b91505092915050565b600080600080600060a08688031215610616576106156103e0565b5b600061062488828901610433565b955050602061063588828901610433565b945050604061064688828901610469565b93505060606106578882890161049f565b925050608086013567ffffffffffffffff811115610678576106776103e5565b5b610684888289016105cc565b9150509295509295909350565b60008115159050919050565b6106a681610691565b82525050565b60006020820190506106c1600083018461069d565b92915050565b6000602082840312156106dd576106dc6103e0565b5b60006106eb8482850161049f565b91505092915050565b6106fd8161040a565b82525050565b600060208201905061071860008301846106f4565b92915050565b600082825260208201905092915050565b7f417574686f72697a6174696f6e20616c72656164792075736564000000000000600082015250565b6000610765601a8361071e565b91506107708261072f565b602082019050919050565b6000602082019050818103600083015261079481610758565b9050919050565b60008160601b9050919050565b60006107b38261079b565b9050919050565b60006107c5826107a8565b9050919050565b6107dd6107d88261040a565b6107ba565b82525050565b6000819050919050565b6107fe6107f982610448565b6107e3565b82525050565b6000819050919050565b61081f61081a8261047e565b610804565b82525050565b600061083182876107cc565b60148201915061084182866107cc565b60148201915061085182856107ed565b602082019150610861828461080e565b60208201915081905095945050505050565b7f496e76616c6964207369676e6174757265000000000000000000000000000000600082015250565b60006108a960118361071e565b91506108b482610873565b602082019050919050565b600060208201905081810360008301526108d88161089c565b9050919050565b6108e881610448565b82525050565b600060208201905061090360008301846108df565b92915050565b600081905092915050565b7f19457468657265756d205369676e6564204d6573736167653a0a333200000000600082015250565b600061094a601c83610909565b915061095582610914565b601c82019050919050565b600061096b8261093d565b9150610977828461080e565b60208201915081905092915050565b61098f8161047e565b82525050565b600060ff82169050919050565b6109ab81610995565b82525050565b60006080820190506109c66000830187610986565b6109d360208301866109a2565b6109e06040830185610986565b6109ed6060830184610986565b95945050505050565b7f496e76616c6964207369676e6174757265206c656e6774680000000000000000600082015250565b6000610a2c60188361071e565b9150610a37826109f6565b602082019050919050565b60006020820190508181036000830152610a5b81610a1f565b905091905056fea2646970667358221220967e7897827949ee06a303a53494e0722f5a7ff968322be8609d96d49fce434b64736f6c63430008140033",
  "linkReferences": {},
  "deployedLinkReferences": {}
}